:100000000AC008C007C006C005C004C003C002C0C3
:10001000D1C000C01895112410E0A0E6B0E0E4E0E3
:10002000F2E002C005900D92A436B107D9F720E0A6
:10003000A4E6B0E001C01D92AC36B207E1F77894B7
:10004000BA98B99A3798A89588E19EE00FB6F894C7
:10005000A89581BD0FBE91BD81B5806481BD7894A6
:1000600085B7877E806185BFC1E08091630088236A
:10007000A1F18CED95E08CD0B29B2BC080916100FA
:1000800090916200049721F4109262001092610036
:10009000809161009091620001969093620080933C
:1000A0006100019709F47ED0809161009091620017
:1000B000029711F477D076D0809161009091620020
:1000C000039719F46FD06ED06DD088EE93E060D0B6
:1000D000CCCF10926300BC9AC8CFC0906800D0907B
:1000E0006900E0906A00F0906B008FEFC81AD80AA0
:1000F000E80AF80AC0926800D0926900E0926A00AB
:10010000F0926B008091640090916500A091660070
:10011000B091670046015701881A990AAA0ABB0ADA
:100120008091600081111EC0609161007091620039
:10013000072E000C880B990B20ED32E241E050E0D5
:1001400048D0681579058A059B05E8F4C0926400DB
:10015000D0926500E0926600F0926700C093600064
:10016000C49811C08BE088169104A104B10458F022
:10017000C0926400D0926500E0926600F092670041
:1001800010926000C49A85B7806285BF88956DCF54
:1001900006C0E9EFF0E03197F1F700C000000197E9
:1001A000C0F70895C19A8AEF90E0F2DFC1988AEF14
:1001B00090E0EECF1F920F920FB60F9211248F9303
:1001C00081B5806481BD8F910F900FBE0F901F90FD
:1001D0001895EE27FF27AA27BB2708C0A20FB31F39
:1001E000E41FF51F220F331F441F551F9695879557
:1001F0007795679598F37040A9F7009799F7BD0137
:04020000CF0108958D
:0402040001010001F3
:00000001FF
